:0400000081EF00F09C
:100008007C777C777C777C7740007C7740007C77B6
:100018007C777C777C777C777C777C777C777C7740
:100028007C774000400040007C777C777C777C7749
:100038007C777C777C777C777C777C777C777C7720
:100048007C777C777C777C77400040007C777C7776
:100058007C777C777C7740007C777C777C777C77B3
:100068007C777C777C777C777C777C777C777C77F0
:100078007C777C777C777C7740007C777C777C7793
:100088007C777C777C777C777C777C777C777C77D0
:1000980015747C777C777C7740007C774000400043
:1000A8007C777C777C777C777C777C777C777C77B0
:1000B8007C777C777C777C777C777C777C777C77A0
:1000C8007C777C777C777C777C777C777C777C7790
:1000D8007C777C777C777C777C777C777C777C7780
:1000E80040007C777C777C774000400040004000EF
:0E00F8007C777C777C777C77FF0005EFE1F06A
:10C4E00000819FE0FC407E80FC00001000E92A03F0
:10C4F000E92103E902037F002020202020202020C2
:10C500002020202020202020434F505952494748C6
:10C51000542028432920313938302C2044494749B8
:10C5200054414C205245534541524348202000007D
:10C5300000000000000000000000000000000000FB
:10C5400000000000000000000000000000000000EB
:10C5500000000000000000000000000000000000DB
:10C5600000000000000000000000000000000000CB
:10C570000000000000000000CDE08CCD8EC5C3B1EE
:10C580000033D2EBF38AD0B102EBEDB02051E8F4E6
:10C59000FF59C3B00DE8F5FFB00AEBF151E8F3FF26
:10C5A0005B8A070AC07501C34353E8D8FF5BEBF110
:10C5B000BA2708B13BEBC1B93200BA3009EBB9B1C7
:10C5C0003AEBB5B10DEBB18AD0B10EEBABE8A8FFF9
:10C5D000A2CD08FEC0C3B10FEBF3C606470800BAF0
:10C5E0002708EBF2B110E8E4FF7401C3B99B09EB33
:10C5F00020B111EBD8B112EBD4BA2708EBF3B11389
:10C60000EB1DE873FF0AC0C3B114EBF6BA2708EBC1
:10C61000F7E888FFE9B706B117EB04B2FFB120E9EC
:10C6200056FF3C6172063C7B7302245FC3F606052D
:10C6300008FF7458F6063909FF740533C0E887FF10
:10C64000BA0608E890FF7444A01508FEC8A22608A0
:10C65000BA0608E8B2FF7534BF0A00BE4B08B980BD
:10C6600000E8C502C606140800FE0E1508BA060842
:10C67000E871FF7417A03909E84CFFBB0B00E820F4
:10C68000FFE832007411E85600E9BF01E85000B13C
:10C690000ABA0900E8E1FEBB0B0033C92E8A0E0A74
:10C6A00000E30A8A07E87AFF880743E2F6882FC783
:10C6B0000635090B00C3B10BE8BDFE0AC07501C306
:10C6C000B101E8B3FE0AC0C3B119EB10B133EB0CF2
:10C6D0008B160308E8F5FFBA8000B11AE999FEF657
:10C6E000060508FF7501C3B000A20508E8D8FEBA28
:10C6F0000608E809FFA03909E9CCFEBFDC09BE0045
:10C700000BB90600F3A6E302EB01C3F48A040AC0E6
:10C710007501C33C207303E9930157BF3B09B90975
:10C7200000FCF2AE5FC38A043C007501C33C207478
:10C7300001C346EBF143C60720E2FAC351E8CCFF40
:10C740005974F2433C2A7504B03FEB01468807E276
:10C75000EBE8B8FF740346EBF8C3B80000BB27084A
:10C7600003D853C6063A09008B363509E8B7FF8966
:10C7700036370974081C40807C013A7405A03909D9
:10C78000EB123C1077043C007705B4FF5BEB39A259
:10C790003A0946468807B90800E8A0FFB903003CFB
:10C7A0002E750146E895FF438BFB8BC1B90300FC56
:10C7B00033C0F3AA893635095BB90B0043803F3F8C
:10C7C0007502FEC4E2F68A040AE4C3BF4409BB064C
:10C7D00000BE2808B90400F3A6740803F94B75F1EC
:10C7E000B007C38A043C2075F78BC3C38CCAE8DB4F
:10C7F000FEBA4B08E8E3FEC3C70635090B002E80DE
:10C800003E0B000375062EC6060A0000BC3009E880
:10C810003E01EB2C2EC6060A0000BC3009518AC12D
:10C82000B104D2D8240F8AD0A2CE08E8EFFDE89256
:10C83000FDA20508E888FD58240FA23909E887FD04
:10C84000E8A9FF2E803E0A0000751AFCBC3009E8FA
:10C8500041FDE873FE0441E82BFDB03EE826FDE80B
:10C860008AFFE8C8FDFCE85FFEA239092E803E0B76
:10C87000003B74D78B363509E8ABFE74CEE8DAFEA0
:10C88000752BF6063A09FF7403E94503803E280834
:10C8900020741AE835FF48BBE20903D803D88B1788
:10C8A000FFE2B99009EB03B95C09E9EFFCE8E3FCAE
:10C8B0008B1E37098A073C20740C0AC0740853E8A1
:10C8C000C3FC5B43EBEEB03FE8BAFCE8C5FC2EC608
:10C8D000060A0000E974FFE880FEF6063A09FF75D3
:10C8E000CCBB2808B90B00803F207503B021C38A58
:10C8F000073C207427432C303C0A73B18AF0F6C5FC
:10C90000E075AA8AC5B103D2C002C572A002C57281
:10C910009C02C672988AE8FEC975D4C3803F207510
:10C920008C43FEC975F68AC5C3FCF3A4C3BB4B0890
:10C93000B40002C103D88A07C3C606270800A03A7C
:10C94000090AC07424FEC8BB39093A07741BEB1DE1
:10C950008A16CE08E8C6FCEB11A03A090AC0740991
:10C96000FEC8BB39093A077501C3A03909E957FC6C
:10C97000C606F10901E82700803EF009007406B9F7
:10C98000AA09E817FCEB15C606F10900E8100080BB
:10C990003EF009007406B9C509E800FCE92F032E32
:10C9A000C6060A0000C606F00900E8ADFD80FCFFDF
:10C9B0007503E9F8FEE881FFBB2808803F20750A6F
:10C9C000B50BC6073F43FECD75F8B20052E829FC0F
:10C9D0007503E8D2FE7503E99B00A0CD08B103D230
:10C9E000C88AC8B00AE845FFD0D0730EF606F10930
:10C9F000FF7515C606F00901EB70F606F109FF7424
:10CA000007C606F00901EB625A8AC2FEC252E91C4F
:10CA1000052403507514E87AFB51E8ABFC59044136
:10CA2000E86AFBB03AE865FBEB08E85EFBB03AE881
:10CA30005BFBE856FBB5018AC5E8F1FE247F3C208C
:10CA4000751358503C03750BB009E8E0FE247F3C99
:10CA5000207416B020E835FBFEC580FD0C730A80FB
:10CA6000FD0975D3E824FBEBCE58E849FC7506E8D0
:10CA700083FBE960FF5AC32EC6060A0000E8DAFC11
:10CA800080FC0B7521B96409E811FBE89FFBBB0A28
:10CA900000FE0F7403E9B3FD43803F597403E9AA14
:10CAA000FD43891E3509803E2808207467E889FE09
:10CAB000BA2708E848FBFEC07503E8EAFDEB4C2EF8
:10CAC000C6060A0000E892FC754A803E28082074D9
:10CAD00043E865FEE803FB74E1E8B7FABBFF0081B9
:10CAE000FB8000720A53E823FB5B751BBB0000430D
:10CAF000BE4A0803F38A043C1A741053E886FAE825
:10CB0000B4FB5B7506EBD8FEC87503E9C001E8917C
:10CB1000FDE845FEE996FD2EC6060A0000E83AFC4F
:10CB200075F2A03A0950E810FEE8CDFA7402EB5510
:10CB3000BE2708BF3708B91000E8EDFD8B36350970
:10CB4000E8E3FB3C3D74043C5F75354689363509A6
:10CB5000E807FC752B588AE8BB3A098A070AC074B3
:10CB6000063AC5882F7519882FC606270800E88859
:10CB7000FA7408BA2708E89EFAEB90E829FDEBF969
:10CB8000E8D6FDEB38B96F09E811FAEBECE847FDA0
:10CB90003C21751AE8FCF9E881FA0C303C39760939
:10CBA00050B031E8DFF9582C0AE8D9F9EB493C10CC
:10CBB0007202EB098AD0803E2808207503E9EDFC5B
:10CBC000A2CE08E857FAE90801B97B09E8CDF9EBEC
:10CBD000A8E827FB803E280820751FA03A090AC054
:10CBE0007415FEC8A23909A33109E8CAF90BDB7430
:10CBF000CCA03909E8D0F9E9D700803E300820748C
:10CC000002EBBAE833FDBF3008BE0008B90300F3F9
:10CC1000A4BA2708E8C3F97506E83DFDE98EFCE8EB
:10CC20008EF94074A4891E03088EC3E82BFD8CD8AE
:10CC30008EC0E825FBBB3A09538A07A22708B81023
:10CC400000E819FB5B8A07A23708C606470800BF41
:10CC50005C008E060308BE2708B92100E8CAFCBEA6
:10CC60000B00E8C1FA0AC0740EAC0AC074093C207B
:10CC70007402EBF5E8AFFAB500BF81004EACAA0A2A
:10CC8000C07404FEC5EBF68AC5BF8000AABF0000D1
:10CC9000268B45032EA3FB07268A45052EA2FA07FD
:10CCA000E8F0F8E82AFAC606CF08002EC6060A0001
:10CCB000008E0603088E1E0308BB0F00833F00741E
:10CCC000028E072EFF1EF907BC3009E9B1F8E8888B
:10CCD000FCE886FAA028082C20BB3A090A0775034D
:10CCE000E968FBE9C7FB00000000000000434D4479
:10CCF000000000002424242020202020535542003E
:10CD00000000000000000000000000000000000023
:10CD10000000000000000000000000000000000013
:10CD20000000000000000000000000000000000003
:10CD300000000000000000000000000000000000F3
:10CD400000000000000000000000000000000000E3
:10CD500000000000000000000000000000000000D3
:10CD600000000000000000000000000000000000C3
:10CD700000000000000000000000000000000000B3
:10CD800000000000000000000000000000000000A3
:10CD90000000000000000000000000000000000093
:10CDA0000000000000000000000000000000000083
:10CDB0000000000000000000000000000000000073
:10CDC0000000000000000000000000000000000063
:10CDD0000000000000000000000000000000000053
:10CDE0000000000000000000000000000000000043
:10CDF0000000000000000000000000000000000033
:10CE00000000000000000000000000000000000022
:10CE10000000000000000000000000000009000009
:10CE200001000B0000000000203D5F2E3A3B3C3E1D
:10CE30002C444952535553455252454E2054595053
:10CE40004545524120444952204E4F2046494C45C9
:10CE500000414C4C2028592F4E293F0046494C4553
:10CE600020455849535453004D454D4F5259204E7B
:10CE70004F5420415641494C41424C450052454196
:10CE800044204552524F52000D0A43414E4E4F54DA
:10CE900020434C4F5345000D0A4E4F4E2D535953CE
:10CEA00054454D2046494C4528532920455849535F
:10CEB00054000D0A53595354454D2046494C4528BA
:10CEC000532920455849535400010A000000009A94
:10CED000048A05D2052A06A0068304E406000000A1
:10CEE00000000000000000000000000000313220BF
:10CEF0004A616E7561727920313938320000000064
:10CF000000001201820000000000000000A396242F
:10CF100007C30000000000000000000000A1232360
:10CF2000A39D24C7069B24FFFFE9C70400803EE0C1
:10CF3000243C7203E9DAFA2401E9D5FA007207C742
:10CF4000069B24FFFFC3E93B0100000000313220B3
:10CF50006A616E756172792038320000000000004D
:10CF600000000000000000000000000000260FABE1
:10CF7000156314B0151225FC15B515D315D815DE9B
:10CF800015EA15F115EC0A06209D1F2720A120A700
:10CF900020D220EB20F420FD2003210C2115211BA1
:10CFA0002121212821BA172E2134213D2146215843
:10CFB00021612167216D217321F715F715C421D651
:10CFC00021F821F10A570F760F800FAC0FCE0FF426
:10CFD0000F06104410A4101D0EB022E9030BBBA0D5
:10CFE00024E94A16000000000000000000010A00C9
:10CFF0000000001E8CC88ED88F069D2480F9057411
:10D000000580F90D7205C606B124FF8C169424899B
:10D01000269624803E98240174078CC88ED0BC8E3E
:10D02000248B1E96248E069424268B5F0481E300B5
:10D03000027401FB8CD85557560E078C062523E841
:10D040001A005E5F5D8E062523FA8E1694248B26C9
:10D050009624C606B124008E1E9D24CF89169924DD
:10D060008816102333C0A39B24A22723A21523A232
:10D070001323BB89215380F929720980E90680F9BD
:10D0800036E9B9FE8AD9B7008ACA03DB2EFFA7802A
:10D090000ABBAB23E819003C037555EB10BBB62364
:10D0A000EB08BBC223EB03BBBD23E80300E96A0323
:10D0B00053E8D308A0A4240441A2A723B99B23E8E2
:10D0C000CF0859E8CB08E9AA071E5051C606272306
:10D0D000FF880E282332ED8B3699248936A924BF88
:10D0E000C623893E99248E1E9D24FCF3A459581F03
:10D0F000C351B121EB0351B124E8CDFF59C3065010
:10D10000518A0E282332ED8E069D24BEC6238B3E07
:10D11000A924893E9924FCF3A4595807C3B1148B60
:10D1200016DC228E1E2323E805008CC88ED8C32E61
:10D13000C606982401CDE0C353BAD722E8F0FF5BBE
:10D14000C350538B5C072B5C058B45072B45053B78
:10D15000D8760287F75B58C32BDB2BD2C606E222B8
:10D16000FFB90800BE0C22803C007466803C02754A
:10D1700005C606E22200837C0300743E8B4403A3B1
:10D18000D722837C07008B440574038B4407A3D903
:10D190002251B13852E8A0FF5A59803E9B240074B6
:10D1A0003151B136E891FF59A1D922394405731D97
:10D1B000894407B138E880FFEB18035C05837C07DE
:10D1C00000740C035407730ABAF0FFEB05EB5B0322
:10D1D000540583C609E2900BD274298916D922B16D
:10D1E00037E854FF803E9B24007419B135E848FFAE
:10D1F0003B1ED92277D7B137E83DFF8B16D9222BBA
:10D20000D3E82C008B3E9423A123238CC93BC1750A
:10D2100008C6450401FE069323EB12BE0C22B90892
:10D22000003804740883C609E2F7B0FFC3B000C336
:10D23000803EE222FF750B8B1E112203DA891E133A
:10D2400022C3B002E8D4FF837C0700742E8BFEB8A3
:10D250000300E8C6FF837C07007419E8E3FED1EA07
:10D260008BDA035C053B5C0776072B5C0703D3EB8B
:10D2700003895C07035505895507C3B003E89BFF85
:10D28000035405895407C3837C07007404034407CF
:10D29000C3034405C3C606D62200A1D722803EE2BE
:10D2A00022FF750DC606D62201A30F22A3D422EBBE
:10D2B0002CBE0C22B90800803C007419803C027519
:10D2C00003A3D422837C0300750E894403803C09A8
:10D2D0007503C60401E8AFFF83C609E2DAC383FD24
:10D2E00070750E5306E835FE075BBD0000BE542284
:10D2F000C383C510C38BD82500F0B104D2ECB104B0
:10D30000D3E383EB017302FECCC3A19D24A32323AB
:10D3100006908916DC22A19424A3E022A19624A3DE
:10D32000DE228CCAB133E806FEBA0C22B11AE8FE3E
:10D33000FDE8E9FD803E9B24007403E9CD00E81779
:10D34000FE84C075F6E84DFFBA5422B11AE8DFFD3D
:10D35000BD7000B90800BB0C2251803F0074248EC0
:10D360004703BF00008B4F01E31951E870FFB90874
:10D3700000FCF3A583FF0075078CC280C6108EC227
:10D3800059E2E75983C309E2D08E06D4228C069B6A
:10D3900024BF0000B93000B000FCF3AABF0000A019
:10D3A000D62226884505B201BE0C22B908003814E1
:10D3B000740783C609E2F7EB308B440326894503E3
:10D3C0008B4405837C070074038B4407E826FF2603
:10D3D00088650226891D803EE222FF750C83C70600
:10D3E0002688650226891DEB0AFEC283C70680FADD
:10D3F0000876B5A1DC22A39924C606982400A1E0F2
:10D4000022A39424A1DE22E903FB90E90FFB24FF71
:10D41000FFEBE0A010233C01741FC6060A00008049
:10D420003E9323017705E86801EB0EE8F2018B1EBD
:10D430009423E8E900FE0E9323C606982400BB035C
:10D4400025E9B7061E8E1E9D248BDA8A078B4F01B5
:10D450008B57031F5B33DB8AD802C002D881C3001D
:10D4600025FFE38916A2248BCAE8B415C38B1EA23C
:10D4700024891E25238B1EA024E9B211832E942318
:10D48000058B3E94238B0789058B4702894502C68D
:10D490004504008006292301C3E89B01750A803EEC
:10D4A0002A23007473E8ED01756E8B44023947023C
:10D4B00072038947028B048907EB53E87901755899
:10D4C00083C604FEC13A0E2A23734DE8480275F064
:10D4D0008B440203042B073947027203894702EB8E
:10D4E0002DE853017532E8DD01752DE86B01E88BFD
:10D4F000FFEB1BE84101752083C604FEC13A0E2AEA
:10D50000237315E8100275F0E84302E86EFFA02AC5
:10D510002388470432C0EB02B0FFA29B24C38B4791
:10D5200002A3D9228B07A3D722BBD722E81101EB94
:10D530000EE80301807F04FF7505E8E300EBCF836D
:10D540007F020074D3E86C0275CEE8920274C9E8D9
:10D5500063003C0075C2E8C40275168BFE8AE9E8D8
:10D56000E60274088B4702014502EBA2E83802EBA1
:10D570009DE8D402750C8B0789048B470201440295
:10D58000EB8CE8B7018B0789048B4702894402EBD7
:10D59000EF33C0A22923A29323B89323A39423E8B3
:10D5A00081148BF38A0CD0E1D0E1FEC132EDBF2AA9
:10D5B00023FCF3A4C38A0E2923B500BF8E238B0757
:10D5C0003905742173178B150355020347023BC2BB
:10D5D000750B8B45022B4702894502EB4083EF0513
:10D5E000E2DCB0FFC38B47023B4502741173F303C7
:10D5F0000589058B45022B4702894502EB1F8B45A8
:10D60000FB89058B45FD8945028A45FF88450483D2
:10D61000EF05E2D1FE0E29238306942305B000C353
:10D62000803E292300740F8B1E9423807F04007595
:10D6300005E8EAFEEBEAC3B105E88DFA8B1E9924F2
:10D64000B1FFBE2723B0FF803E2923087308837FE4
:10D6500002007402FEC00AC0C3518B44022B470271
:10D6600075098B048907E80B00EB07894402030462
:10D67000890759C3515657A02A23FEC8A22A232A34
:10D68000C1740E8AC832ED03C98BFE83C604FCF355
:10D69000A55F5E59C3525733D2B5FF83C604FEC19E
:10D6A0003A0E2A23730F8B44023BC272EE8BD08A50
:10D6B000E98BFEEBE6B0FF8BF78ACDFEC57402FE68
:10D6C000C00AC05F5AC35257BAFFFFB5FF83C604F2
:10D6D000FEC13A0E2A2373168B44022B4702741A9A
:10D6E00072EB3BC273E78BD08AE98BFEEBDFB0FFB6
:10D6F0008BF78ACDFEC57402FEC00AC05F5AC38B89
:10D7000047020307C353E8F6FF8946028BDEE8EEC3
:10D71000FF8946005BC35583EC048BEC51B5FFE8F1
:10D72000E3FF8B073B04720A8B46003B4602720202
:10D73000B5008AC55983C4045D0AC0C3A02A23FE6C
:10D74000062A23B404F6E48BF08DB42B23C355834F
:10D75000EC048BEC5251E8ACFF8B073B0475198B42
:10D7600046023B460075075951E808FFEB32890431
:10D770008B4702294402EB288B46002B4602750991
:10D780008B072B04894402EB178B072B0489440277
:10D79000E8A9FF8B460289042B4600F7D88944028A
:10D7A000595A83C4045DC38B4702034402014502F6
:10D7B000E8C1FEC351525653E868128A2F8BF38397
:10D7C000EE035BB1FF83C604FEC13ACD7309E845A1
:10D7D000FF75F2B000EB02B0FF5E5A590AC0C355A4
:10D7E00083EC048BEC5651BE2723B1FF83C604FEA5
:10D7F000C13A0E2A23731BE80BFF8B073B04730906
:10D800008B46023B047707EBE33B460073DEB00038
:10D81000EB02B0FF595E83C4045D0AC0C35583ECBC
:10D82000048BECBE2723B1FF83C604FEC13A0E2A47
:10D8300023730CE8CFFE8B072B460075EBEB02B091
:10D84000FF83C4045D0AC0C35583EC048BECBE2780
:10D8500023B1FF83C604FEC13A0E2A23730CE8A449
:10D86000FE8B46022B0475EBEB02B0FF83C4045D14
:10D870000AC0C3BBE6228A07C607000AC07525E9AD
:10D880006C02E8EEFFE80A00721A508AC8E8C0008D
:10D8900058C33C0D740E3C0A740A3C0974063C08DB
:10D8A00074023C20C3A0E6220AC0754BE84402245F
:10D8B0000174F1E838023C13753AE831023C037414
:10D8C0000332C0C3C606E52200803E932300750BD9
:10D8D000E8200CA09B24A20508EB0EF606AF24FF5F
:10D8E000740F803E9323017508C6060A0000E948BC
:10D8F000FBE926FBA2E622B001C3A0E3220AC07521
:10D900001651E8A0FF5951E8EE015951803EB62466
:10D91000007403E8D301598AC1BBE5223C7F741629
:10D92000FE073C207310FE0F8A070AC074088AC1E4
:10D930003C087503FE0FC33C0A75FBC60700C38A8B
:10D94000C1E84EFF730A50B15EE8AEFF5980C9408E
:10D9500080F90975A5B120E8A0FFA0E5222407758C
:10D96000F4C3E80500B120E88E01B108E98901B1EE
:10D9700023E886FFE81000A0E5223A06E42273E1DE
:10D98000B120E875FFEBF0B10DE86EFFB10AE9696F
:10D99000FF8BF1AC3C2474C941518AC81E161FE8A4
:10D9A000AEFF1F59EBEBA0E522A2E4228B1E9924C7
:10D9B000268A0F4353B5005153E8B7FE5B593C0D1F
:10D9C0007503E9C6003C0A74F93C08750E0AED744B
:10D9D000E6FECDA0E522A2E322EB513C7F750C0AC6
:10D9E000ED74D4268A07FECD4BEB7C3C05750C51BB
:10D9F00053E893FFC606E42200EBBE3C107506F622
:10DA000016B624EBB23C1875145BA0E422BBE522E9
:10DA1000903A07739190FE0FE847FFEBED3C1575C8
:10DA200007E84BFF5BE97EFF3C12753551E83FFF8D
:10DA3000595B53510AED740F43268A0FFECD5153A3
:10DA4000E8FCFE5B59EBED53A0E3220AC074102AF8
:10DA500006E522A2E322E809FFFE0EE32275F7EBBA
:10DA60009843268807FEC551538AC8E8D1FE5B5902
:10DA7000268A073C038AC5750B3C0175078CD88E36
:10DA8000C0E940FE3AC17303E92CFF5B26882FB141
:10DA90000D8CD88EC0E962FEE8E7FDEB44E8620F2A
:10DAA000EB3F8AC1FEC07409FEC0754CE84400EB30
:10DAB00030E83F000AC07503E9E60BE83000EB21CF
:10DAC000E8630FEB1C8BCAE85F0FC38BCA1E8E1E68
:10DAD0009D24E8BCFE1FC38E069D24E9C8FEE8C451
:10DAE000FDA29B24C3B001EBF8BB0F25EB0DBB09D6
:10DAF00025EB08BB0625EB03BB0C25FF1E0022C34C
:10DB0000FFD3CBBB0622FF2751B5008BF28BFBFC6A
:10DB1000F3A459C38A0EA424E8ED0E83FB007450CD
:10DB20008B1783C302891EEC2283C302891EEE2257
:10DB300083C302891EF02283C30287DA891E092368
:10DB40008B1EF222891EAD24BBF222B108E8B8FF79
:10DB50008B16F422BBFA22B10FE8ACFFA00023BB66
:10DB60001223C607FF0AC07403C60700B0FF0AC02D
:10DB7000C3E8910E33C08B1EEE228907C38B161AA1
:10DB800023E8900EEB078A0E0D23E88A0E0AC07474
:10DB9000DFBB0422E96FFF8B1EA624B102D3EB8901
:10DBA0001E1A23891E1F23A11A23BA0000F736FA72
:10DBB00022528BC88B36EE22890C030E0723E84ACB
:10DBC0000E598B160923E8540E8BCBE9400EBBFC93
:10DBD000228A0FA01823D2E88AE8B1072A0FA017DB
:10DBE00023D2E002C5C38B1E992483C31003D980BE
:10DBF0003E12230074058A1FB700C303D98B1FC3CD
:10DC0000E8CBFF8AC8B500E8DCFF891E1A23C38B66
:10DC10001E1A230BDBC38A0EFC228B1E1A23D3E3AE
:10DC2000891E1C23A018232206FD220AD8891E1A49
:10DC300023C38B1E992483C30C8A07C3BA0F000326
:10DC4000169924BB110003DAC3E8F0FF8A07A21873
:10DC50002387DA8A07A21623E8D7FFA0FE2222072D
:10DC6000A21723C3E8D5FFA00F233C02750232C0E0
:10DC700002061823880787DAA016238807C3B9800D
:10DC8000008B1EF22232C0020743E2FBC3518A0E10
:10DC9000A424BB0100D3E3590BD9C3A1E8228A0E07
:10DCA000A424D3E82401C38B0EE822E8DFFF891EF9
:10DCB000E8228B160123428B1EEC228917C3E81B36
:10DCC00000BA090003DA8A07D0D0731BBB0A22EB23
:10DCD00008E8C7FF7411BB0822E92AFE8B1EF22256
:10DCE000A01E23B40003D8C38B1E992483C30E8ABD
:10DCF00007C3E8F3FFC60700C3E8ECFF0C80880702
:10DD0000C38B16A6248B1EEC223B17C3E8F2FF72CE
:10DD1000FA428917C3522BD38BDA5AC3B1FF8B1641
:10DD20001F238B1E0523E8ECFF73E051E84FFF8BA8
:10DD30001E1F23031EF62259FEC1740D3A07740BF1
:10DD4000E8BEFF7306E85FFFC38807C3E8CDFFE8BE
:10DD50001900B101E833FEEB06E80F00E81EFE8B68
:10DD60000EA224E8BA0CBBA024EB088CD9E8B00CB6
:10DD7000BBF2228B0FE9990C8B16F2228B1EA0248A
:10DD8000B180068E06A224E87EFD07C3BBA6248AC6
:10DD900007433A077502FEC0C3BBFFFF891EA624D6
:10DDA000C38B1601238B1EA62443891EA624E86478
:10DDB000FF7302EBE4A0A624240351B105D2E0597D
:10DDC000A21E230AC0752651E8CCFDE88BFF59E955
:10DDD0004CFF8BD180E107FEC18AE9B103D3EA8B06
:10DDE0001EF82203DA8A078ACDD2C08BD1C352E84B
:10DDF000E0FF24FE590AC1518ACED2C8880759C310
:10DE0000E8D9FE83C31051B1115AFEC97501C3523E
:10DE1000803E122300740851538A0FB500EB07FEB1
:10DE2000C9518B0F43530BC9740B8B1EFF223BD977
:10DE30007203E8B9FF5B4359EBCF8B1EFF22B1039E
:10DE4000D3EB438BCB8B1EF822C6070043E2FA8B41
:10DE50001603238B1EF8228917E815FD8B1EEC2272
:10DE6000C7070300E832FFB1FFE835FFE81DFF7484
:10DE70003BE868FE803FE574EEA0A5243A07750CE8
:10DE8000438A072C247505FEC8A29B24B101E86FC4
:10DE9000FFE878FEEBD1A00E23E945FC518A2EFE67
:10DEA00022F6D522CD22C52AC1241F59C38B1E9923
:10DEB00024891E2123C6060E23FF880EA824C3E84A
:10DEC000EBFFE8D4FEE8A9FCC6069A2300B100E8FF
:10DED000CFFEE8B7FE7503E980008B1621238BF295
:10DEE000AC3CE5740752E818FE5A73EBE8EDFD8A86
:10DEF0000EA824B5000AC974388BF2AC3C3F7429D3
:10DF000080FD0D742480FD0C74082A07247F75336E
:10DF1000EB17518A0FE884FF599FF6069A23FF7585
:10DF200045C6069723009E759F4243FEC5FEC9EB7A
:10DF3000C4C6060E2300A0A6242403A29B248AE8BC
:10DF4000FEC5C30AED7530F607FF752BF60697235D
:10DF5000FF7424C6069A23FFEBCFE83CFEB0FF8A8D
:10DF6000E8FEC5E97BFB9E750E43803F0075088B7C
:10DF700036A62489369823E94EFFE854FDB10CE813
:10DF80003DFFE807FE74BBE834FDE84FFDC607E53A
:10DF9000B100E86BFEE8B4FDE82DFFEBE58BD10B9B
:10DFA000C9740C495251E829FED0D87318595A3B0C
:10DFB00016FF22731A4251528BCAE815FED0D8734D
:10DFC000045A59EBDAD0D0FEC0E82BFE5B5AC30BE3
:10DFD000C975CCBB0000C3B100B22052B5008B168E
:10DFE000992403D1E8F5FC59E81DFBE8A9FBE95B9E
:10DFF000FDE8DDFCB10CE8C6FE8B1E99248A078380
:10E00000C3108807E885FD7501C3E8B1FCB110B203
:10E010000CE8C7FFE8B1FEEBEBB10CE8A1FEE86B42
:10E02000FD74E6B100B20CE8B1FFE89BFEEBEFB186
:10E030000FE88BFEE855FD74D0E8F6FB5053E89BE3
:10E04000FC87DA8B1E9924B12052E8BBFAE8A9FCC0
:10E050005ABB0C0003DA8A0FBB0F0003DA8A2F5B6E
:10E060005888073A0F8AC57406B0007202B0808BD8
:10E070001E9924BA0F0003DA8807C3833F0075FA9C
:10E080008BF2AD8907C333C0A29B24A3A624E80A60
:10E09000FC75F2E852FC248075EBB10FE820FEE835
:10E0A000EAFC74E1B91000E832FC03D987DA8B1E70
:10E0B000992403D9B110803E122300741B8A070AE9
:10E0C000C08BF2AC750288070AC075068A078BFA06
:10E0D000FCAA3A077547EB16E8A0FF87DAE89BFF32
:10E0E00087DA8BF28B043B0775334243FEC9424308
:10E0F000FEC975C2B9ECFF03D987DA03D98BF2AC3C
:10E100003A0772118807B9030003D987DA03D98A5D
:10E11000078BFAFCAAC6060B23FFE9CEFEFE0E9B78
:10E1200024C3E8ACFBFF369924C7069924E722B143
:10E1300001E88BFDE855FC8F06992474E48B169951
:10E1400024BB0F0003DAB11132C0880743FEC97542
:10E15000F9BB0D0003DA8807E8B1FBE879FEE9981E
:10E16000FB32C0A20B23E81DFFE820FC74B38B1E1A
:10E17000992483C30C8A07FEC0241F8807740F8A62
:10E18000E8A0FE2222C522060B23740DEB2683C3D2
:10E1900002FE078A07240F7426B10FE821FDE8EB81
:10E1A000FB7511A00C23FEC07415E875FFE8DCFBBD
:10E1B000740DEB03E882FEE88FFA32C0E922F9E839
:10E1C00023F9E934FBC6060F2301C6060C23FFE83A
:10E1D00077FAA018233A06162372183C807528E8AF
:10E1E0007FFFE857FA33C0A318238807803E9B249B
:10E1F000007514E80AFAE816FA740CE818FAE8A6AA
:10E20000F9E879F9E95DFAE9DBF8C6060F2301C6FA
:10E21000060C2300E8BAFA8B1E9924E8A3FAE82832
:10E22000FAA018233C807203E9BAF8E8D2F9E8DED4
:10E23000F9B1007548E896F9A2112333C90AC074F0
:10E24000088AC849E89FF98BCBE851FD0BDB7505BF
:10E25000B002E98CF8891E1A2387DA8B1E99248371
:10E26000C310803E122300A01123B400740603D80B
:10E270008817EB0703D803D8891743B102803E9B68
:10E2800024007401C3880E0D23E88AF9803E0F2311
:10E29000027545803E0D2302753EFF361A238B3EE4
:10E2A000F22233C0B94000FCF3ABE8BEFA8B1E1C6F
:10E2B00023891E1A23E8EFF8E8CBF88B1E1A23C631
:10E2C000060D23008AC38A36FD2222C6433AC6754C
:10E2D000E08F061A23E887FAE8CCF8E8A8F8A01837
:10E2E00023BB16233A0772068807FE07B10250E8DF
:10E2F000F6F9247F8807583C7F751E803E0F230166
:10E300007517E85FF9E859FEBB9B248A070AC075B8
:10E3100005FEC8A21823C60700E948F9C6060F2360
:10E3200000518B169924BB210003DA8A07247F5001
:10E330008A07D0D0438A07D0D0241F8AC88A07D042
:10E34000D8D0D8D0D8D0D8240F8AE858438A1F0A0A
:10E35000DBB3067569BB200003DA8807BB0C00033A
:10E36000DA8AC12A07750DBB0E0003DA8AC52A07AF
:10E37000247F743C5152E80DFD5A59B303A09B24ED
:10E38000FEC07432BB0C0003DA880FBB0E0003DA48
:10E39000882FE89AFCA09B24FEC075145951B30441
:10E3A000FEC17412E87BFDB305A09B24FEC0740679
:10E3B0005932C0E92BF753E82EF9C607C05B598ADA
:10E3C000C3A29B24E932F9B1FFE850FF7503E8F9D5
:10E3D000FDC3B100E845FF7503E833FEC387DA03E8
:10E3E000DA8A0FB500BB0C0003DA8A27B000D1E847
:10E3F00080E40F03C8BB0E0003DA8A07B410F6E40A
:10E400005002E89C5B8AC35B0AC32401C3B10CE8D9
:10E41000ADFA8B1E9924BA210003DA53883743885A
:10E4200037438837E865F97422E8B0F8BA0F00E896
:10E43000ABFF5B538AD08BC12B078AC21A4702728B
:10E4400005885702890FE87FFAEBD95BC38B1E99C9
:10E4500024BA2000E886FFBB210003DA890F884731
:10E4600002C38B1EEA228A0EA424D3CB5387DAE898
:10E47000A2F65B7503E88BF6D0DB72678B0EEA229F
:10E48000E80AF8891EEA22E9B0F9A01023A2A42420
:10E49000EBD0E85CECEB03E85CEC8B1E9924C60641
:10E4A000962300F647088074098067087FC60696A1
:10E4B0002360C6061323FF8B1E99248A07241FFEA0
:10E4C000C8A210233C1E7312A0A424A214238A07FE
:10E4D000A2152324E08807E8B0FFA0A5248B1E998D
:10E4E000240807C3803E96236075078B1E9924C6B7
:10E4F0000700C3F7060222FFFF75048C0E022233C9
:10E50000DB891EE822891EEA228A1EB724881EA4FF
:10E5100024E94EFFE87BFFE8D8F7803EA52400748D
:10E520000BC7069923FE00C6069723FFE800FBE809
:10E530003C00F6069723FF7501C3C60697230081AA
:10E540003E9923FE0074F28B1E982380E3FC4B89D6
:10E550001EA624C6069623608B1E9924C60700B10A
:10E560000FE849F9E861F9E8CDFAE80100C3E81BD2
:10E57000F874C65B803E96236075128B1E99248AC0
:10E58000470A24807507A29623B0FFEB7EC3E801FB
:10E59000FFE9F2FAE85AEB8B1E9D24891EAB24B1E9
:10E5A000008B1E9924803F3F7410E885F6803F3F22
:10E5B0007403E83DF7E8E2FEB10FE802F9EB168BD1
:10E5C0001EAB24891E9D248B1EA924891E9924E834
:10E5D000C0FEE8F3F8E9A0F7E8B7FEE89CF9E9B572
:10E5E000F8E8AEFEE8FDFEE9DBFBE8A5FEE91AFC73
:10E5F000E89FFEE8FCF6E929FBE896FEE8F2F9E977
:10E6000094F88B1EEA22EB26A0A424E9D3F4891601
:10E61000A024E94AF78B1EF822EB138B1EE822EBAD
:10E620000DE86EFEE8F2F9E96CF88B1EF422891E03
:10E630009B24C3A010233CFF7505A0A524EBCC248C
:10E640001FA2A524C3E84FFEE899FEE979FDE8463C
:10E65000FEE97EFDE840FEE9B3FDE899EAE9EDFD5B
:10E66000A19924F7D050BBEA222307890758BBE8B9
:10E670002223078907C3803E13230074248B1E992D
:10E6800024803E9623607504804F0880C60700A052
:10E6900015230AC0740B8807A01423A21023E8E9ED
:10E6A000FD803E2723FF7503E853EAA19B248BD806
:10E6B000C3E8E3FDC6060F2302B100E863FC75F072
:10E6C000E94CFB1EB98000BF0B008B36A0248E1EC8
:10E6D000A224ACAA0AC07402E2F8B0802AC11FA228
:10E6E0000A00E93AEDC30000000000000013160024
:10E6F00000A40BB00BB50BBA0B000000000000002B
:10E700000000000000000000000000000000000009
:10E7100000000000000000000000000000000000F9
:10E7200000000000000000000000000000000000E9
:10E7300000000000000000000000000000000000D9
:10E7400000000000000000000000000000000000C9
:10E7500000000000000000000000000000000000B9
:10E7600000000000000000000000000000000000A9
:10E770000000000000000000000000000000000099
:10E780000000000000000000000000000000000089
:10E790000000000000000000000000000000000079
:10E7A0000000000000000000000000000000000069
:10E7B0000000000000000000000000000000000059
:10E7C0000000000000000000000000000000000049
:10E7D00000000000E5000000000000000000000054
:10E7E0000000000000000000000000000000000029
:10E7F0000000000000000000000000000000000019
:10E800000000000000000000000000000000000008
:10E8100000000000000000000000000000000000F8
:10E8200000000000000000000000000000000000E8
:10E8300000000000000000000000000000000000D8
:10E8400000000000000000000000000000000000C8
:10E8500000000000000000000000000000000000B8
:10E8600000000000000000000000000000000000A8
:10E870000000000000000000000000000000000098
:10E88000000000000000000042646F7320457272B7
:10E89000204F6E20203A2024426164205365637427
:10E8A0006F722453656C6563742446696C652052ED
:10E8B0002F4F2400000000000000000000000000B6
:10E8C0000000000000000000000000000000000048
:10E8D0000000000000000000000000000000000038
:10E8E0000000000000000000000000000000000028
:10E8F0000000000000000000000000000000000018
:10E900000000000000000000000000000000000007
:10E9100000000000000000000000000000000000F7
:10E9200000000000000000000000000000000000E7
:10E9300000000000000000000000000000000000D7
:10E9400000000000000000000000000000000000C7
:10E9500000000000000000000000000000000000B7
:10E9600000000000000000000000000000000000A7
:10E970000000000000000000000000000000000097
:10E980000000000000000000000000000000000087
:10E990000000000000000000000000000000000077
:10E9A0000000000000000000000000000000000067
:10E9B0000000000000000000000000000000000057
:10E9C00000000000000000000000000000500000F7
:10E9D0000000000000000000000000000000000037
:10E9E0000000B830FF8ED88EC08ED0A37801B8005A
:10E9F000018BE0A36A01B049A25C0133C0A35201BC
:10EA0000A35801A35A01A25D01A27C01BB6001B918
:10EA10000E00890743434975F9B84000A35001A38C
:10EA20007401A37E01B80025A37201A38001B84040
:10EA300000A37601A37A0133C08EC0BE75088BF89F
:10EA4000B900022E8B04464626890547474981FEB8
:10EA5000890875EFB8F507BB50FF2689054747269B
:10EA6000891D4747494975F2BF8400B8F4062689D5
:10EA700005474726891DBB1908E854059C588BC8D3
:10EA800025FF0F509D9C582500F03D00F0751D544A
:10EA90005A3BD47432B80001D5000AC07507B011D2
:10EAA000BB8908EB27B014BBA308EB2081C900F099
:10EAB000519D9C582500F07507B031BBAD08EB0C9B
:10EAC000B071BBB508EB0532C0BBBD08A25D01E863
:10EAD000FE04BBF607E8F804EA00254000B830FF62
:10EAE0008ED88ED0BC0001BB2E08E8E304E85205A6
:10EAF000BB0001E89B05E8A20522C074E03C447518
:10EB000002EB2B3C477503E941013C537503E9F6E1
:10EB1000013C4C7503E979023C527503E96E033CF4
:10EB2000547503E94304BB4B08E8A404EBAF43E886
:10EB300074050AC97515E858050AC075E98B16529F
:10EB40000181C2800089165401EB408A073C3A7566
:10EB50000C8916500143E84D050AC974C98916523B
:10EB6000018A073C2C740E0AC075BB81C2800089E3
:10EB7000165401EB1643E82D05E815050AC974A6DD
:10EB80008A070AC075A042891654018E0650018B6F
:10EB900036520183E6F032C0A25601E82300E801B4
:10EBA000090AC07512A056013C0272EF8B1E540177
:10EBB000891E5201E926FF89365201E8DB08E91C6B
:10EBC000FFA15001E82404B03AE8DB088BC6E81A3C
:10EBD00004BB5308E8F903BF0001B91000E828009E
:10EBE000E2FBBB5608E8E803BF0001B910008A0544
:10EBF000473C2072093C7F7305E8AB08EB05B02E5B
:10EC0000E8A408E2E9E93004B020E89A08A0560137
:10EC10000AC0751A3B365201740FB0208805E88689
:10EC200008B020E881084647C3B001A25601A056AB
:10EC3000013C0175E5268A048805E8B50346473B93
:10EC40003654017505B002A25601C332C0A27C0140
:10EC500043E852040AC9741D8A073C3A75108916A4
:10EC6000740189167E0143E83C040AC974198916A7
:10EC70007201E81C048A070AC074373C2C750843EB
:10EC8000E823040AC97503E99CFEA17401A37E016F
:10EC90008A073C3A750C89167E0143E808040AC9C4
:10ECA00074E589168001E8E8030AC075DAB001A2AC
:10ECB0007C01A07C010AC07414A17E018EC08B3639
:10ECC0008001268A04A27D01B0CC268804E6308E1D
:10ECD0001678018B266A01A1680150A1740150A128
:10ECE000720150A160018B1E62018B0E64018B16B4
:10ECF00066018B2E6C018B366E018B3E70018E0689
:10ED00007A018E1E7601CF43E89B030AC9741F8ADD
:10ED1000073C3A750C8916500143E889030AC97407
:10ED20006D89165A01E869038A070AC07560A15007
:10ED3000018EC0E8B502B03AE86C078B365A018BF9
:10ED4000C6E8A702BB5608E88602268A04E8A202A3
:10ED5000B020E85207E8EA02BB0001E833038A0763
:10ED60000AC075074689365A01EBC33C2D75074E1C
:10ED700089365A01EBB83C2E7503E960FDE826039D
:10ED80000AC9740A2688144689365A01EBA0E99507
:10ED9000FD43E811030AC974148A073C3A751089C7
:10EDA00016500143E8FF020AC97430EB0233D28ADD
:10EDB000070AC075268BF28E065001B02EE8E706D2
:10EDC000E8D606E8D5023C53746B3C3A74103C0D0F
:10EDD00074E93C0A74E5E8C006EBF3E948FDE82B6A
:10EDE000028AC88AD8E824028AF002C8E81D028A8A
:10EDF000D002C88BFA03FEE81202A25E0102C80A22
:10EE0000DB7415E8060202C88A3E5E010AFF75043B
:10EE100026880547FECB75EBE8F10102C1750DA010
:10EE20005E010AC074A8E80F02E9B1FCBB3108E832
:10EE30009E01E9A8FCE86106A25E01E8CE018AD83D
:10EE40008AC8E8C7018AF002C8E8C0018AD002C8AF
:10EE50008BFA03FE80EB03722B7416E8AE0102C836
:10EE60008A3E5E0180FF31750426880547FECB751A
:10EE7000EAE8980102C13CFF750AA05E013C3974C2
:10EE8000A5E94AFFBB3E08E84601E950FC43E8001B
:10EE900002E807020AC07506E87F00E93FFCBE9859
:10EEA000092E3A04740D2E8A4C010AC9746983C66E
:10EEB00006EBEE2E8A44013C0F750C2E8B74024338
:10EEC0008A07E8D601EBDA0AC0744C2E8A4C012E70
:10EED0008B5C04E8FA00B03DE8CC052E8B5C028028
:10EEE000E107535180F90175078A07E80401EB0532
:10EEF0008B07E8F600B020E8AD05E84501BB00014E
:10EF0000E8A3010AC9740D595B80F90175048817DB
:10EF1000EB028917E9C6FBE90CFCBE00092E8B1C2D
:10EF20000BDB7411E8A90046462E8B1C8B07E8BA50
:10EF3000004646EBE8BB8209E89500BF8201BB882A
:10EF400009B110A1680125D50FD1E07205C6052EC3
:10EF5000EB052E8A2F882D4347FEC975ECC60500A8
:10EF6000BB8201E87800E9CF0043E839010AC9749F
:10EF7000198A073C3A750C8916740143E827010A7F
:10EF8000C9740D89167201E807018A070AC0740363
:10EF9000E993FBE6308E1678018B266A01A16801A1
:10EFA0000D000150A1740150A1720150A160018BAC
:10EFB0001E62018B0E64018B1666018B2E6C018B19
:10EFC000366E018B3E70018E067A018E1E7601CF61
:10EFD0002E8A0722C07406E8CD0443EBF3C38A07E8
:10EFE00022C07406E8C00443EBF4C3508AC4E801AD
:10EFF000005850D0E8D0E8D0E8D0E8E80100582424
:10F000000F04303C3A72020407E99B0432C0E8085E
:10F0100000D0E0D0E0D0E0D0E08AE8E87B04E87AF5
:10F02000003C3072123C3A720A3C41720A3C47730F
:10F03000062C072C300AC5C3B00DE86A04B00AE9F3
:10F040006504BB000132C9E84F043C0D743B3C0A27
:10F0500074373C08741B3C7F74173C2072E93C8079
:10F0600073E580F94F73E08807E83B0443FEC1EB8A
:10F07000D622C974D24BFEC9B008E82A04B020E8F1
:10F080002504B008E82004EBBEE8ACFFB000880718
:10F09000C38A073C20750343EBF7C33C6172063C0F
:10F0A0007B730204E0C3E8E8FF32C933D28A07E881
:10F0B000E9FF3C30721F3C3A720A3C4172173C47F0
:10F0C00073132C072C30D1E2D1E2D1E2D1E20AD085
:10F0D00043FEC1EBD8C380FC077504E8BB03CF80B7
:10F0E000FC0275068AC2E8BE03CF80FC0B7507E8F8
:10F0F000B0037402B0FF80FC00750DB830FF8ED8ED
:10F100008ED0BC0001E9B100CF501EB830FF8ED8C0
:10F11000891E6201890E6401BBC70833C9EB5750D1
:10F120001EB830FF8ED8891E6201890E6401BBD8DB
:10F130000833C9EB41501EB830FF8ED8891E6201DA
:10F14000890E6401BBE10833C9EB2B501EB830FFB8
:10F150008ED8891E6201890E6401BBE908B90100DD
:10F16000EB14501EB830FF8ED8891E6201890E64E0
:10F1700001BBF30833C958A3760158A3600189166F
:10F180006601892E6C0189366E01893E70018C06FC
:10F190007A01582BC1A3720158A374015825D50ECA
:10F1A000A3680189266A018C167801B830FF8ED0D9
:10F1B000BC0001E81AFEE861FDA07C010AC07414DD
:10F1C000A17E018EC08B368001A07D01268804328D
:10F1D000C0A27C01E906F9CF4E6F7720696E766F89
:10F1E0006B696E67204F7065726174696E6720533A
:10F1F000797374656D2E2E2E0D0A000D0A556E69F9
:10F2000076657273616C204D6F6E69746F72200049
:10F210005D20004572726F7220696865780D0A0082
:10F220004572726F7220737265630D0A00457272C7
:10F230006F720D0A00203A00203A20003A30303038
:10F24000303030303146460D0A00533930333030DB
:10F25000303046430D0A00270750FF3D0750FF534B
:10F260000750FF690750FF800750FF383038362FAE
:10F27000383038380D0A0038303138362F383031D0
:10F2800038380D0A005633302F5632300D0A003808
:10F29000303238360D0A0038303338360D0A005512
:10F2A0006E6B6E6F776E0D0A000D0A4469766964A5
:10F2B00065206572726F720D0A000D0A53746570D5
:10F2C0000D0A000D0A4E4D490D0A000D0A427265E5
:10F2D000616B0D0A000D0A4F766572666C6F770DD3
:10F2E0000A003C09600140096201450964014A09BC
:10F2F00066014F09680154097401590976015E09D4
:10F30000780163097A0168096A016E096C01730961
:10F310006E01780970017D097201000000004158FA
:10F320003D002042583D002043583D002044583DB8
:10F330000020464C3D002043533D002044533D00F7
:10F340002053533D002045533D000D0A53503D00CE
:10F350002042503D002053493D002044493D0020BB
:10F3600049503D0020464C623D002E2E2E2E4F442B
:10F370004954535A2E412E502E43410FCE090000BE
:10F38000420FE6090000430F040A0000440F220A5E
:10F390000000450F220A000046026801A90A490F31
:10F3A000520A0000530F5E0A000000000000000037
:10F3B00058026001760A48016101790A4C01600136
:10F3C0007C0A000000000000580262017F0A480128
:10F3D0006301820A4C016201850A50026C01880AAD
:10F3E000000000000000580264018B0A480165011A
:10F3F0008E0A4C016401910A53027401940A0000C0
:10F400000000000058026601970A480167019A0A45
:10F410004C0166019D0A49027001A00A530276015F
:10F42000A30A00000000000053027A01A60A0000AF
:10F430000000000050027201AB0A00000000000052
:10F4400049026E01AE0A50026A01B10A5302780104
:10F45000B40A000000000000415800414800414C3F
:10F4600000425800424800424C00425000435800BD
:10F47000434800434C004353004458004448004470
:10F480004C00444900445300455300460049500095
:10F49000534900535000535300E402240174FAE42A
:10F4A00000C3E4022401C350E402240274FA58E6C3
:10F4B00000C3FFFFFFFFFFFFFFFFFFFFFFFFFFFF97
:10F4C000FFFFFFFFFFFFFFFFFFFFFFFFFFFFFFFF4C
:10F4D000FFFFEA000050FFFFFFFFFFFFFFFFFFFFFE
:10F4E000FFFFE98000E9AC00E9B800E9BF00E9C628
:10F4F00000E9CE00E9D100E9D100E91001E9E50019
:10F50000E90E01E91001E92301E92E01E94701E9CA
:10F51000B300E90601E91901E91B01E9B000E9B10D
:10F52000009090909090909090909090909090906B
:10F5300090909090909090909090909090909090CB
:10F5400090909090909090909090909090909090BB
:10F5500090909090909090909090909090909090AB
:10F5600090909090908CC88ED08ED88EC0BCF02A8F
:10F57000FC1EC606802600B800008ED88EC0C706C6
:10F580008003060B8C0E82031FBB8126E84800B166
:10F5900000E94EDAE951DAFA8CC88ED8BBC126E808
:10F5A0003500F4E402240174030CFFC3C3E8F3FF45
:10F5B00074FBE400247FC3E402240274FA8AC1E6E7
:10F5C00000C332C0C332C0C332C0C332C0C3A08084
:10F5D00026C3880E8026C38A0784C074F98AC8E8C7
:10F5E000D5FF43EBF28AC13C047212BB46273C08AC
:10F5F0007418BB56273C097411BB0000C3B5008BBF
:10F60000D9B104D3E3B9DD2603D9E610C332C0EB88
:10F61000028AC1E612C38BC1E714C30BD274098BF3
:10F62000D903DA8A1FB700C38BD943C38BC1E72440
:10F63000C38BC1E726C3BBD826C3E422240175FAD5
:10F64000B000E620E422240175FA24027405B0011A
:10F650000AC0C332C0C3E422240175FAB001E62017
:10F66000EBE2000D0A0D0A43502F4D2D3836204293
:10F67000494F532047656E657261746564210D0AB8
:10F68000454D55383038382F5632305F52414D2075
:10F6900065646974696F6E2E20323032332E3132D8
:10F6A0000D0A000D0A496E746572727570742054EB
:10F6B0007261702048616C740D0A01EF0241FC2CEC
:10F6C0002700000000000075271D271428F5272CAF
:10F6D0002700000000000075271D27432824282C40
:10F6E0002700000000000075271D27722853282CD2
:10F6F0002700000000000075271D27A12882281A76
:10F7000000030700F2003F00C000100002000107E4
:10F710000D1319050B111703090F1502080E141A02
:10F72000060C1218040A1016000000000000000069
:10F7300075276627AF2AB1280000000000000000EE
:10F7400075276627AF2AB0298000040F00F707FF4E
:10F7500003FFFF00000000FFFFFFFFFFFFFFFFFFB1
:10F76000FFFF534420436172643A2072656164353F
:10F7700031323A20435243206572726F722028253D
:10F7800030347820213D20253034782C2072657467
:10F7900072793D2564290A0D00496D61676520660F
:10F7A000696C652025732F445249564525632E44C4
:10F7B000534B2069732061737369676E65642074AD
:10F7C0006F2064726976652025630A0D00574152E7
:10F7D0004E494E473A20756E6B6E6F776E20492FFB
:10F7E0004F2077726974652025642C2025642028B9
:10F7F00025303258482C202530325848290A0D002F
:10F800006469736B5F696F63746C3A2070647276BD
:10F810003D25642C20636D643D25642C2062756653
:10F82000663D3078256C783A207265733D25640A10
:10F830000D00534420436172643A20207265616474
:10F840003531323A20616464723D25386C642C2075
:10F850006F6666733D25642C20636F756E743D255D
:10F86000640A0D00534420436172643A2077726940
:10F8700074653531323A20616464723D25386C64B8
:10F880002C206F6666733D25642C20636F756E7443
:10F890003D25640A0D00534420436172643A207789
:10F8A000726974653531323A206661696C6564202D
:10F8B000746F2067657420746F6B656E2C2074699B
:10F8C0006D656F75740A0D00534420436172643A8C
:10F8D0002077726974653531323A2074696D656FCD
:10F8E00075742C20726573706F6E73652069732058
:10F8F000253032780A0D00534420436172643A2067
:10F90000434D4435382C2052333D25303278202564
:10F91000303278202530327820253032782025305A
:10F9200032780A0D0025733A204552524F523A2040
:10F93000636C6F636B207370656564202564206958
:10F9400073206E6F7420737570706F727465640AC3
:10F950000D00534420436172643A20434D44382CD7
:10F960002052373D2530327820253032782025301E
:10F970003278202530327820253032780A0D006424
:10F9800069736B5F696F63746C3A20706472763D63
:10F9900025642C20636D643D25643A204E6F7420ED
:10F9A00068616E646C65642E0A0D006469736B5F38
:10F9B000726561643A2020706472763D25642C2063
:10F9C000736563746F723D256C642C20636F756E74
:10F9D000743D25640A0D006469736B5F7772697406
:10F9E000653A20706472763D25642C2073656374DB
:10F9F0006F723D256C642C20636F756E743D2564B9
:10FA00000A0D004C6F6164204343505F42444F53E2
:10FA1000203D202530366C782C2053797374656D29
:10FA20002073697A65203D20253034780D0A004C1A
:10FA30006F616420756E696D6F6E203D20253036D4
:10FA40006C782C2050726F6772616D2073697A65D3
:10FA5000203D20253034780D0A0053442043617244
:10FA6000643A204343532028436172642043617009
:10FA700061636974792053746174757329206973A3
:10FA800020300A0D00534420436172643A2077729B
:10FA90006974653531323A20435243206572726F82
:10FAA00072202872657472793D2564290A0D004C14
:10FAB0006F6164204342494F53203D202530366C0E
:10FAC000782C2053797374656D2073697A65203DB5
:10FAD00020253034780D0A00534420436172643A83
:10FAE000204361726420706F776572207570207397
:10FAF00074617475732062697320697320300A0D14
:10FB00000072656164204D425220706172746974A4
:10FB1000696F6E207461626C652061742073656327
:10FB2000746F7220300A0D005741524E494E473AC9
:10FB300020756E6B6E6F776E20492F4F2072656156
:10FB40006420256420282530325848290A0D0053A6
:10FB50004420436172643A2053444843206F72202A
:10FB60005344584320636172642064657465637410
:10FB700065640A0D0025733A204552524F523A20CF
:10FB80006D6F6465202564206973206E6F74207327
:10FB90007570706F727465640A0D0055736520503E
:10FBA000574D332020252E3266204D487A20666F2F
:10FBB00072203830383820636C6F636B0A0D005345
:10FBC0004420436172643A20696E697469616C69AA
:10FBD0007A65202E2E2E20737563636565646564D7
:10FBE0000A0D00534420436172643A20756E6578B3
:10FBF00070656374656420726573706F6E736520E1
:10FC0000253032780A0D00534420436172643A2053
:10FC100041434D44343120726573706F6E736520BB
:10FC2000697320253032780A0D00534420436172F5
:10FC3000643A2077726974653531323A20746F6B9B
:10FC4000656E20697320253032780A0D004D656D90
:10FC50006F727920303030303030202D2025303612
:10FC60006C5848202564204B42204F4B0D0A00530E
:10FC70004420436172643A20434D44353920726513
:10FC800073706F6E736520697320253032780A0DAA
:10FC900000706172746974696F6E2073746172743C
:10FCA0007320617420736563746F7220256C640A1D
:10FCB0000D00665F777269746528293A20455252B3
:10FCC0004F52207265733D25642C206E3D25640AD9
:10FCD0000D00665F7265616428293A204552524FD3
:10FCE00052207265733D25642C206E3D25640A0DFB
:10FCF000006661696C656420746F20777269746551
:10FD000020736563746F7220256C640A0D00666150
:10FD1000696C656420746F2072656164207365632B
:10FD2000746F7220256C640A0D000A0D5344204341
:10FD30006172643A20696E697469616C697A6520E0
:10FD40002E2E2E0A0D004661696C656420746F20AA
:10FD50006F70656E20534420436172642E2E0A0D2D
:10FD6000004661696C656420746F206D6F756E74F8
:10FD700020534420436172642E0A0D0053442043F3
:10FD80006172643A2041434D4434312C2052313D5C
:10FD9000253032780A0D006661696C656420746FE5
:10FDA000207265616420736563746F7220300A0D80
:10FDB000000A4D656D6F7279206572726F722061F5
:10FDC00074202530366C58480A0D006469736B5FE7
:10FDD000696E697469616C697A65282564292E2EBB
:10FDE0002E0A0D00534420436172643A206E6F74F2
:10FDF000207375706F70727465640A0D005344202F
:10FE0000436172643A20434D44302C2052313D25E9
:10FE10003032780A0D0020202020202020202020B1
:10FE2000202020202020202020202020200D0077AE
:10FE300061697420666F722070726F6772616D6D98
:10FE40006572202E2E2E0D00257325353373204329
:10FE50004845434B53554D3A20253032780A0D0022
:10FE60004D656D6F727920303030303030202D206C
:10FE70002530366C58480D00706879736963616C81
:10FE80002064726976657220213D20300A0D00667B
:10FE90005F6C7365656B28293A204552524F52209A
:10FEA00025640A0D006E6F20464154333220706184
:10FEB00072746974696F6E0A0D00665F73796E63A0
:10FEC00028293A204552524F522025640A0D006ECF
:10FED0006F204D4252207369676E61747572650AB6
:10FEE0000D00534420436172643A2074696D656F5C
:10FEF00075740A0D006E6F2076616C696420766FF0
:10FF00006C756D650A0D0025732069732073656C2F
:10FF100065637465642E0A0D005344204361726466
:10FF20003A2072656164792E0A0D005350495F537F
:10FF3000445F636F6E666967757265004E6F20621D
:10FF40006F6F74206469736B2E0A0D002A2B2C3A94
:10FF50003B3C3D3E5B5D7C223F7F0025732F44523E
:10FF600049564525632E44534B004E6F2053442081
:10FF7000436172643F0A0D00426F6172643A20254A
:10FF8000730A0D00454D55383038385F52414D00E9
:10FF900046415433322020200025732530366C78BA
:10FFA0003A0025643A2025730A0D0053656C656399
:10FFB000743A200043504D4449534B530025732558
:10FFC0003034783A0043504D4449537E0020253068
:10FFD0003278006661743A20006275663A200052F9
:10FFE000443A200057523A2000303A2F2F00534411
:10FFF0003A2000696E66006E616E006C6C730000E2
:020000040001F9
:1000000092C6D9F493C6DAF4DE6ADD6A90C606F5C4
:1000100091C607F5C3ECD1F006C5A1F607C5A2F657
:100020000601A2BF18EF80F016EF80F01BEF80F002
:100030000B0E61EF85F0D890A135D96EA235DA6E3E
:10004000E20ED926060EDA22DEC4BCF6DDC4BDF609
:10005000BC51BD11D8A42FEF80F031EF80F034EF08
:1000600080F00C0E61EF85F092C6D9F493C6DAF4F5
:10007000BCC6DEF4BDC6DDF49491BCC6D9F4BDC6E1
:10008000DAF4DF50D8B447EF80F049EF80F070EF3A
:1000900080F020EE01F0BC51D926BD51DA22DF50AC
:1000A00065ECE7F00601B16FB1B159EF80F05BEF9D
:1000B00080F070EF80F09451D8B461EF80F063EF7E
:1000C00080F06DEF80F0B1A568EF80F06AEF80F00E
:1000D0006DEF80F00A0E61EF85F0000E61EF85F0A4
:1000E000BCC6D9F4BDC6DAF4DF6A20EE01F0BC511B
:1000F000D926BD51DA22DF5042ECC1F00601B16FC2
:10010000B1A185EF80F087EF80F08AEF80F0030ED9
:1001100061EF85F09451D8B490EF80F092EF80F0C9
:100120009BEF80F0B1A597EF80F099EF80F09BEF07
:1001300080F06AEF80F0BCC63BF6BDC63CF6000E10
:100140003E6F000E3D6F64ECCDF03BC6BAF63CC688
:10015000BBF6040E0601BA19BB11D8A4B2EF80F0A9
:10016000B4EF80F0B7EF80F0010E61EF85F0BB5186
:1001700009E1020EBA5DD8A0C0EF80F0C2EF80F0B6
:10018000C5EF80F00D0E61EF85F020EE2CF0BC5134
:10019000D926BD51DA22DEC4ADF6DEC4AEF6DEC429
:1001A000AFF6DEC4B0F63B0EBC25066E000EBD21D8
:1001B000076E41ECEDF0020E07180610D8B4E3EF1D
:1001C00080F0E5EF80F0E7EF80F0C2EF80F0460EC0
:1001D0000601BC25066E000EBD21076E41ECEDF058
:1001E00006C5B6F607C5B7F60601B86BB96BB651CA
:1001F000B711B811B911D8A400EF81F002EF81F066
:1002000012EF81F0540EBC25066E000EBD21076E64
:1002100093ECE4F006C5B6F607C5B7F608C5B8F620
:1002200009C5B9F6060120EE18F0BC51D926BD511A
:10023000DA22B6C6DEF4B7C6DEF4B8C6DEF4B9C656
:10024000DEF420EE40F0BC51D926BD51DA2210EE8A
:1002500003F0BC51E126BD51E222DFC4E7F420EEF9
:1002600003F0BC51D926BD51DA22DE04D8B43BEFED
:1002700081F03DEF81F04EEF81F020EE03F0BC51B4
:10028000D926BD51DA22020EDE18D8B44AEF81F029
:100290004CEF81F04EEF81F0C2EF80F0B6C606F56C
:1002A000B7C607F5B8C608F5B9C609F520EE03F0DC
:1002B000BC51D926BD51DA22DF50956F95510A6E97
:1002C0000B6A0C6A0D6A1AECE9F006C5B6F607C5AA
:1002D000B7F608C5B8F609C5B9F6060120EE3DF037
:1002E000BC51D926BD51DA22DF50956F966B20EEB6
:1002F0000AF0BC51D926BD51DA2295C6DEF496C665
:10030000DDF420EE0AF0BC51D926BD51DA22DE50D0
:10031000DE10D8B48EEF81F090EF81F0C2EF80F064
:1003200020EE0AF0BC51D926BD51DA22DEC495F682
:10033000DDC496F620EE0AF0BC51D926BD51DA2272
:10034000DEC497F6DDC498F6FF0E9725996FFF0E71
:1003500098219A6F955199159B6F96519A159C6F9C
:100360009B519C11D8B4B7EF81F0B9EF81F0BBEF8E
:1003700081F0C2EF80F0410EBC25066E000EBD215B
:10038000076E41ECEDF0060120EE08F0BC51D926D5
:10039000BD51DA2206C5DEF407C5DDF420EE08F013
:1003A000BC51D926BD51DA22DEC495F6DDC496F6DD
:1003B0000F0E9517000E961795519611D8B4E3EFCE
:1003C00081F0E5EF81F0E7EF81F0C2EF80F0430EBE
:1003D000BC25066E000EBD21076E41ECEDF006C592
:1003E000A9F607C5AAF60601AB6BAC6BA951AA1119
:1003F000AB11AC11D8A4FFEF81F001EF82F011EF47
:1004000082F0500EBC25066E000EBD21076E93ECE7
:10041000E4F006C5A9F607C5AAF608C5ABF609C5F6
:10042000ACF63E0E0601BC25066E000EBD21076E21
:1004300041ECEDF006C5A7F607C5A8F60601A751E1
:10044000A811D8A426EF82F028EF82F02AEF82F0DC
:10045000C2EF80F020EE08F0BC51D926BD51DA225F
:10046000DEC495F6DDC496F6040E976FD8909633E9
:100470009533972F36EF82F0A7519525986FA851A5
:100480009621996F9A6BD8B09A2B9B6BB651982591
:10049000A36FB7519921A46FB8519A21A56FB95193
:1004A0009B21A66FA351A95DA451AA59A551AB598F
:1004B000A651AC59D8B05FEF82F061EF82F063EFE4
:1004C00082F0C2EF80F0A351A95D066EA451AA5933
:1004D000076EA551AB59086EA651AC59096E20EEB6
:1004E0000AF0BC51D926BD51DA22DEC495F6DDC42E
:1004F00096F695C60AF596C60BF50C6A0D6AF4ECED
:10050000E5F006C5B2F607C5B3F608C5B4F609C5E9
:10051000B5F60601B251B311B411B511D8A493EFD9
:1005200082F095EF82F097EF82F0C2EF80F0000E3C
:10053000BB6F000EBA6FF60EB25DFF0EB359FF0E21
:10054000B4590F0EB559D8B0A8EF82F0AAEF82F0D7
:10055000AEEF82F0000EBB6F030EBA6FB551B4114F
:1005600009E1F60EB25DFF0EB359D8B0BAEF82F0D2
:10057000BCEF82F0C0EF82F0000EBB6F020EBA6FCC
:10058000B551B41109E1F60EB25D0F0EB359D8B0F2
:10059000CCEF82F0CEEF82F0D2EF82F0000EBB6F94
:1005A000010EBA6FBA51BB11D8A4D9EF82F0DBEFBC
:1005B00082F0DDEF82F0C2EF80F0020EB225956F7F
:1005C000000EB321966F000EB421976F000EB52177
:1005D000986F20EE14F0BC51D926BD51DA2295C691
:1005E000DEF496C6DEF497C6DEF498C6DEF420EE9E
:1005F0001CF0BC51D926BD51DA22ADC6DEF4AEC620
:10060000DEF4AFC6DEF4B0C6DEF4A751AD25956FBB
:10061000A851AE21966F000EAF21976F000EB0214A
:10062000986F20EE20F0BC51D926BD51DA2295C634
:10063000DEF496C6DEF497C6DEF498C6DEF4A35167
:10064000AD25956FA451AE21966FA551AF21976F3F
:10065000A651B021986F20EE28F0BC51D926BD518B
:10066000DA2295C6DEF496C6DEF497C6DEF498C6A6
:10067000DEF4030EBA19BB11D8A441EF83F043EFA7
:1006800083F0A0EF83F05A0EBC25066E000EBD214C
:10069000076E41ECEDF006500710D8B452EF83F02E
:1006A00054EF83F056EF83F0C2EF80F0060120EEA6
:1006B00008F0BC51D926BD51DA22DE50DE10D8B484
:1006C00064EF83F066EF83F068EF83F0C2EF80F0B1
:1006D0005C0EBC25066E000EBD21076E93ECE4F0A7
:1006E000060120EE24F0BC51D926BD51DA2206C500
:1006F000DEF407C5DEF408C5DEF409C5DEF420EE3D
:1007000014F0BC51D926BD51DA22DEC495F6DEC400
:1007100096F6DEC497F6DEC498F6020ED8909537AA
:10072000963797379837E82E8EEF83F095C69DF66B
:1007300096C69EF697C69FF698C6A0F640EF84F040
:1007400020EE08F0BC51D926BD51DA22DE50DE1071
:10075000D8A4ADEF83F0AFEF83F0B1EF83F0C2EF39
:1007600080F020EE20F0BC51D926BD51DA22DEC443
:1007700095F6DEC496F6DEC497F6DEC498F6B6515A
:100780009525996FB75196219A6FB85197219B6F14
:10079000B95198219C6F20EE24F0BC51D926BD514F
:1007A000DA2299C6DEF49AC6DEF49BC6DEF49CC655
:1007B000DEF4020EBA19BB11D8B4E1EF83F0E3EF17
:1007C00083F029EF84F020EE14F0BC51D926BD51FE
:1007D000DA22DEC495F6DEC496F6DEC497F6DEC4F1
:1007E00098F6010E9515996F000E96159A6F000EEA
:1007F00097159B6F000E98159C6F20EE14F0BC515E
:10080000D926BD51DA22DEC406F5DEC407F5DEC402
:1008100008F5DEC409F5030E0A6E000E0B6E000E1D
:100820000C6E000E0D6E1AECE9F0D8900932083209
:10083000073206320601995106249D6F9A5107200E
:100840009E6F9B5108209F6F9C510920A06F40EF25
:1008500084F020EE14F0BC51D926BD51DA22DEC45A
:1008600095F6DEC496F6DEC497F6DEC498F6D89008
:1008700095359D6F96359E6F97359F6F9835A06F14
:10088000FF0E9D25956F010E9E21966F000E9F21F4
:10089000976F000EA021986F0A0E54EF84F0D89045
:1008A0009833973396339533E82E4FEF84F020EE4C
:1008B00018F0BC51D926BD51DA229551DE5C965113
:1008C000DE589751DE589851DE58D8B06AEF84F060
:1008D0006CEF84F06EEF84F0C2EF80F020EE10F049
:1008E000BC51D926BD51DA22FF0EDE6EFF0EDE6E40
:1008F000FF0EDE6EFF0EDD6EDD52DD5210EE0CF0EF
:10090000BC51E126BD51E222DEC4E6F4DEC4E6F4C9
:10091000DEC4E6F4DEC4E6F420EE05F0BC51D926D0
:10092000BD51DA22800EDF6E030EBA19BB11D8A4B6
:100930009CEF84F09EEF84F04BEF85F0600EBC25B9
:10094000066E000EBD21076E41ECEDF006040710A7
:10095000D8A4ADEF84F0AFEF84F04BEF85F0BCC6C8
:1009600022F6BDC623F6010E0601AD25246F000E4A
:10097000AE21256F000EAF21266F000EB021276F2C
:100980003EECE2F00009D8A4C8EF84F0CAEF84F08E
:100990004BEF85F0060120EE05F0BC51D926BD5184
:1009A000DA22DF6A2E0EBC25066E020EBD21076E0E
:1009B00041ECEDF0550E061807E1AA0E0718D8A471
:1009C000E4EF84F0E6EF84F04BEF85F0300E0601A3
:1009D000BC25066E000EBD21076E93ECE4F0520EAE
:1009E00006180DE1520E07180AE1610E081807E11A
:1009F000410E0918D8A4FFEF84F001EF85F04BEF0A
:100A000085F0140E0601BC25066E020EBD21076E90
:100A100093ECE4F0720E06180DE1720E07180AE16D
:100A2000410E081807E1610E0918D8A41AEF85F0E5
:100A30001CEF85F04BEF85F0180E0601BC25066E05
:100A4000020EBD21076E93ECE4F0060120EE10F0DB
:100A5000BC51D926BD51DA2206C5DEF407C5DEF445
:100A600008C5DEF409C5DEF41C0EBC25066E020EB8
:100A7000BD21076E93ECE4F0060120EE0CF0BC51B2
:100A8000D926BD51DA2206C5DEF407C5DEF408C555
:100A9000DEF409C5DEF4BCC6D9F4BDC6DAF4BAC6C4
:100AA000DFF40701124B132B060120EE06F0BC51B8
:100AB000D926BD51DA2212C7DEF413C7DDF46DEF7B
:100AC00080F01200000E0501926F6CC593F56DC5A4
:100AD00094F56EC595F56FC596F596BF74EF85F0E4
:100AE00072EF85F088EF85F0010E926F93C506F5E1
:100AF00094C507F595C508F596C509F525ECEDF003
:100B000006C593F507C594F508C595F509C596F58D
:100B1000000E0501986F000E976FE0C686F5E1C6DE
:100B200087F59251D8B497EF85F099EF85F0ADEF46
:100B300085F09251D8A49FEF85F0A1EF85F0A7EF43
:100B400085F0000E786F2B0E776FABEF85F0000EFF
:100B5000786F2D0E776F77C592F593C506F594C51E
:100B600007F595C508F596C509F53FECDEF00604D6
:100B70000710D8A4BEEF85F0C0EF85F0F3EF85F045
:100B800005019251D8B4C7EF85F0C9EF85F0D2EFD7
:100B900085F092C500F88607D8A08707000E986FE9
:100BA000010E976F000E9725066E080E9821076EAE
:100BB000F30E086EFF0E096E2CECECF00501FD0E35
:100BC0008627FF0E87236AC517F56BC518F5000E3B
:100BD000196E080E1A6E86C51BF587C51CF59FECAD
:100BE000E5F093EF8AF093C506F594C507F595C532
:100BF00008F596C509F53FECDEF006500710D8A4BD
:100C000004EF86F006EF86F026EF86F0050192519C
:100C1000D8B40DEF86F00FEF86F018EF86F092C58E
:100C200000F88607D8A08707000E986F010E976F0F
:100C3000000E9725066E080E9821076EF70E086EB7
:100C4000FF0E096E2CECECF0DEEF85F0000E0501D6
:100C5000996F000E9A6F800E9B6F3F0E9C6F000E77
:100C6000816F000E806F93C506F594C507F595C595
:100C700008F596C509F5000E0A6E000E0B6E000E03
:100C80000C6E000E0D6E4AECE5F0D8B04AEF86F01F
:100C90004CEF86F02BEF87F059EF86F082C599F57F
:100CA00083C59AF584C59BF585C59CF50501804BE8
:100CB000812B99C514F59AC515F59BC516F59CC5EC
:100CC00017F5000E186E000E196E200E1A6E410EEA
:100CD0001B6EFCECB2F014C582F515C583F516C584
:100CE00084F517C585F505018251935D066E835124
:100CF0009459076E84519559086E85519659096E1D
:100D00004FECE9F009BE90EF86F00950081007108B
:100D100009E1020E065CD8A090EF86F092EF86F013
:100D20004EEF86F082C52DF583C52EF584C52FF5CF
:100D300085C530F593C531F594C532F595C533F5C4
:100D400096C534F53CECDDF0D8A0A9EF86F0ABEF0A
:100D500086F04EEF86F005019951935D066E9A512B
:100D60009459076E9B519559086E9C519659096E7E
:100D70004FECE9F009BECAEF86F0095008100710E1
:100D800007E1020E065CD8B0C8EF86F0CAEF86F025
:100D900012EF87F099C593F59AC594F59BC595F523
:100DA0009CC596F52BEF87F099C52DF59AC52EF5C4
:100DB0009BC52FF59CC530F5000E316E000E326ECE
:100DC000200E336E410E346E11ECB7F02DC599F53F
:100DD0002EC59AF52FC59BF530C59CF505018007FA
:100DE000D8A081079951935D066E9A519459076E68
:100DF0009B519559086E9C519659096E4FECE9F03C
:100E000009BE10EF87F009500810071007E1020E25
:100E1000065CD8B00EEF87F010EF87F012EF87F086
:100E2000CAEF86F093C52DF594C52EF595C52FF51F
:100E300096C530F599C531F59AC532F59BC533F5A0
:100E40009CC534F53CECDDF0D8A029EF87F02BEF02
:100E500087F0D4EF86F070C57AF57AC57BF557BE7A
:100E600034EF87F036EF87F03CEF87F056C573F527
:100E700057C574F541EF87F0000E0501746F060E3B
:100E8000736F73C57EF574C57FF505017E4B7F2BAF
:100E9000660E7B19D8A44FEF87F051EF87F071EF02
:100EA00087F081BF58EF87F056EF87F064EF87F047
:100EB000000E996F000E9A6F800E9B6F3F0E9C6F15
:100EC000000E816F000E806F670E7A19D8B46BEF39
:100ED00087F06DEF87F071EF87F080517E278151A9
:100EE0007F23000E916F000E906F93C588F594C517
:100EF00089F595C58AF596C58BF599C582F59AC58C
:100F000083F59BC584F59CC585F502EF88F088C5FF
:100F10002DF589C52EF58AC52FF58BC530F599C5F8
:100F200031F59AC532F59BC533F59CC534F511EC06
:100F3000B7F02DC546F52EC547F52FC548F530C588
:100F400049F554ECC9F046C58CF547C58DF548C543
:100F50008EF549C58FF58CC506F58DC507F58EC58F
:100F600008F58FC509F5B9ECDCF006C57CF507C5B9
:100F70007DF588C52DF589C52EF58AC52FF58BC55C
:100F800030F58CC518F58DC519F58EC51AF58FC5C8
:100F90001BF599C514F59AC515F59BC516F59CC5A5
:100FA00017F5FCECB2F014C531F515C532F516C5D0
:100FB00033F517C534F5C4ECEBF02DC588F52EC517
:100FC00089F52FC58AF530C58BF599C52DF59AC5DC
:100FD0002EF59BC52FF59CC530F5000E316E000E29
:100FE000326E200E336E410E346E11ECB7F02DC50B
:100FF00099F52EC59AF52FC59BF530C59CF50501D1
:10100000904B912B7E51905D9151800A506E7F5193
:10101000800A5058D8A00FEF88F011EF88F087EFC2
:1010200087F099C514F59AC515F59BC516F59CC5AD
:1010300017F5000E186E000E196EA00E1A6E400EF7
:101040001B6EFCECB2F014C58CF515C58DF516C5FC
:101050008EF517C58FF588C52DF589C52EF58AC57E
:101060002FF58BC530F58CC531F58DC532F58EC5A4
:1010700033F58FC534F53CECDDF0D8B042EF88F0A5
:1010800044EF88F04FEF88F0000E05018C6F000EE2
:101090008D6F000E8E6F000E8F6F78EF88F088C511
:1010A00006F589C507F58AC508F58BC509F58CC510
:1010B0000AF58DC50BF58EC50CF58FC50DF54AECFF
:1010C000E5F0D8A066EF88F068EF88F078EF88F058
:1010D00005017CB16EEF88F070EF88F078EF88F052
:1010E000000E8C6F000E8D6F000E8E6F000E8F6FD6
:1010F00093C506F594C507F595C508F596C509F598
:101100008CC50AF58DC50BF58EC50CF58FC50DF593
:10111000CCECA5F006C588F507C589F508C58AF5A4
:1011200009C58BF588C52DF589C52EF58AC52FF51E
:101130008BC530F5000E186E000E196E200E1A6E5B
:10114000410E1B6E82C514F583C515F584C516F5D1
:1011500085C517F5FCECB2F014C531F515C532F5AF
:1011600016C533F517C534F53CECDDF0D8A0BBEF60
:1011700088F0BDEF88F0E6EF88F00501804B812B09
:1011800082C514F583C515F584C516F585C517F513
:10119000000E186E000E196E200E1A6E410E1B6E98
:1011A000FCECB2F014C582F515C583F516C584F5BF
:1011B00017C585F5660E05017B19D8A4E2EF88F006
:1011C000E4EF88F0E6EF88F07E4B7F2B82C599F53F
:1011D00083C59AF584C59BF585C59CF580C571F5D9
:1011E00081C572F5000E0501796F000E766F000E55
:1011F000756F000E916F000E906FE4EF89F088C557
:101200002DF589C52EF58AC52FF58BC530F599C505
:1012100031F59AC532F59BC533F59CC534F511EC13
:10122000B7F02DC546F52EC547F52FC548F530C595
:1012300049F554ECC9F046C58CF547C58DF548C550
:101240008EF549C58FF58CC506F58DC507F58EC59C
:1012500008F58FC509F5B9ECDCF007BE3BEF89F066
:10126000075007E10A0E065CD8B039EF89F03BEF72
:1012700089F04BEF89F08CC506F58DC507F58EC555
:1012800008F58FC509F5B9ECDCF006C57CF507C596
:101290007DF550EF89F0000E05017D6F090E7C6F22
:1012A00005017951D8A457EF89F059EF89F081EF02
:1012B00089F072BF60EF89F05EEF89F081EF89F00D
:1012C000000E9725D96E080E9821DA6E2E0EDF6E6D
:1012D000974B982B8607D8A08707010E796F81EF6F
:1012E00089F0000E9725D96E080E9821DA6E300E1F
:1012F000DF6E974B982B8607D8A087077507D8A075
:10130000760775517611D8A488EF89F08AEF89F0B5
:1013100071EF89F0000E9725D96E080E9821DA6ECC
:101320007C51300FDF6E974B982B8607D8A087072C
:1013300088C52DF589C52EF58AC52FF58BC530F5E5
:101340008CC518F58DC519F58EC51AF58FC51BF519
:1013500099C514F59AC515F59BC516F59CC517F5E5
:10136000FCECB2F014C531F515C532F516C533F5F0
:1013700017C534F5C4ECEBF02DC588F52EC589F5FD
:101380002FC58AF530C58BF599C52DF59AC52EF573
:101390009BC52FF59CC530F5000E316E000E326EE8
:1013A000200E336E410E346E11ECB7F02DC599F559
:1013B0002EC59AF52FC59BF530C59CF50501710723
:1013C000D8A07207904B912B7E51905D9151800A6D
:1013D000506E7F51800A5058D8B0F1EF89F0F3EF8A
:1013E00089F001EF8AF098BFFFEF89F0985109E189
:1013F0004B0E975DD8A0FFEF89F001EF8AF0FFEF69
:1014000088F0000E916F4F0E906F000E9025D96EF0
:10141000080E9121DA6EDF6A000E506E080E516ED2
:101420009751505E9851515A90515024066E9151E7
:101430005120076E000E086E080E096E97C50AF55A
:1014400098C50BF52EECEBF005019751905D976F69
:1014500098519159986F9251D8A431EF8AF034EF96
:101460008AF0010E35EF8AF0000E906F916B5AA250
:101470003CEF8AF03EEF8AF06CEF8AF04EEF8AF094
:101480009707D8A09807000E9725D96E080E9821C7
:10149000DA6E300EDF6E8607D8A087078651905D22
:1014A0009151800A506E8751800A5058D8B05BEF36
:1014B0008AF05DEF8AF06CEF8AF09751905D915160
:1014C000800A506E9851800A5058D8A06AEF8AF06E
:1014D0006CEF8AF040EF8AF09251D8B472EF8AF044
:1014E00074EF8AF07FEF8AF09707D8A09807000E74
:1014F0009725D96E080E9821DA6E92C5DFF49051C7
:10150000865F9151875B6AC517F56BC518F5000EAC
:101510009725196E080E98211A6E86C51BF587C58A
:101520001CF59FECE5F012006DC684F66EC685F6DC
:1015300071C6D9F472C6DAF4DE6ADD6A6BC6C5F527
:101540006CC6C6F5940E0501C76F060EC86FBEECDB
:10155000DDF00601836F8351D8A4B1EF8AF0B3EFB9
:101560008AF0C3EF8AF020EE0FF06B51D9266C5150
:10157000DA22DF50836F8351D8B4C1EF8AF0C3EF12
:101580008AF0C6EF8AF08351D1EF8EF020EE0EF094
:101590006B51D9266C51DA22DFB2D1EF8AF0D3EF4A
:1015A0008AF0D6EF8AF0070ED1EF8EF020EE10F021
:1015B0006B51D9266C51DA2210EE10F06B51E126F6
:1015C0006C51E222E6C477F6E6C478F6E6C479F612
:1015D000E6C47AF66F5177257B6F705178217C6F66
:1015E000000E79217D6F000E7A217E6FDE507B5DCB
:1015F000DE507C59DE507D59DE507E59D8B003EF65
:101600008BF005EF8BF013EF8BF020EE10F06B51A9
:10161000D9266C51DA22DEC473F6DDC474F6731D6C
:101620006F6F741D706F6F517011D8A41AEF8BF02B
:101630001CEF8BF01EEF8BF0C8EF8EF020EE10F059
:101640006B51D9266C51DA22FF0EDE14736F010E36
:10165000DE14746F000EDE14756F000EDE14766FEC
:101660007351741175117611D8A439EF8BF03BEFDB
:101670008BF00CEF8EF020EE10F06B51D9266C51F0
:10168000DA22DEC473F6DEC474F6DEC475F6DEC498
:1016900076F60A0E51EF8BF0D890763375337433AB
:1016A0007333E82E4CEF8BF020EE0AF09451D926DC
:1016B0009551DA22DEC477F6DDC478F6FF0E772581
:1016C000796FFF0E78217A6F73517915866F745197
:1016D0007A15876F86518711D8A471EF8BF073EF5D
:1016E0008BF03BEF8CF020EE10F06B51D9266C5153
:1016F000DA22DE50DE10DE10DE10D8A482EF8BF08E
:1017000084EF8BF0B5EF8BF020EE06F06B51D9260D
:101710006C51DA22DEC48AF6DEC48BF6DEC48CF6A7
:10172000DEC48DF68A518B118C118D11D8A49BEFDC
:101730008BF09DEF8BF0D1EF8BF06BC64EF66CC645
:101740004FF6000E506F000E516F000E526F000EDC
:10175000536F12EC9EF04EC68AF64FC68BF650C6FB
:101760008CF651C68DF6D1EF8BF06BC64EF66CC67B
:101770004FF620EE14F06B51D9266C51DA22DEC4FC
:1017800050F6DEC451F6DEC452F6DEC453F612EC57
:101790009EF04EC68AF64FC68BF650C68CF651C6E2
:1017A0008DF606018A518B118C118D11D8A4DBEFB7
:1017B0008BF0DDEF8BF0DFEF8BF0C8EF8EF08A055A
:1017C0008B118C118D11D8A4E8EF8BF0EAEF8BF020
:1017D000F5EF8BF020EE0FF06B51D9266C51DA2229
:1017E000020EDF6E020ED1EF8EF08A290AE18B29FC
:1017F00008E18C2906E18D29D8A401EF8CF003EFD4
:101800008CF00EEF8CF020EE0FF06B51D9266C515E
:10181000DA22010EDF6E010ED1EF8EF020EE14F011
:101820006B51D9266C51DA228AC6DEF48BC6DEF4FF
:101830008CC6DEF48DC6DEF420EE06F06B51D926A0
:101840006C51DA22DE50DE10DE10DE10D8A42BEF51
:101850008CF02DEF8CF03BEF8CF020EE06F06B510E
:10186000D9266C51DA228AC6DEF48BC6DEF48CC629
:10187000DEF48DC6DEF420EE0EF06B51D9266C51ED
:10188000DA22DFAE46EF8CF048EF8CF085EF8CF07B
:10189000220E6B25006F000E6C21016F20EE18F0F8
:1018A0006B51D9266C51DA22DEC402F6DEC403F68F
:1018B000DEC404F6DEC405F6000E076F010E066FE7
:1018C00020EE01F09451D9269551DA22DF509FEC99
:1018D000D5F00009D8B46FEF8CF071EF8CF07CEF8D
:1018E0008CF0060120EE0FF06B51D9266C51DA22F4
:1018F000010EDF6E0BEF8CF0060120EE0EF06B5147
:10190000D9266C51DA227F0EDF1694C612F595C6E1
:1019100013F520EE14F06B51D9266C51DA22DEC497
:1019200014F5DEC415F5DEC416F5DEC417F5A4EC17
:10193000E2F012C590F613C591F614C592F615C5DE
:1019400093F606019051911192119311D8A4ABEF27
:101950008CF0ADEF8CF0B7EF8CF020EE0FF06B5108
:10196000D9266C51DA22020EDF6EF2EF8BF086512F
:10197000902787519123000E9223000E93236FC668
:1019800073F670C674F6090E756FD890743373339E
:10199000752FC5EF8CF073C688F674C689F688512A
:1019A0008911D8B4D6EF8CF0D8EF8CF09CEF8DF085
:1019B00088518625736F89518721746F20EE0AF054
:1019C0009451D9269551DA227351DE5C7451DE5858
:1019D000D8B0EDEF8CF0EFEF8CF0FFEF8CF020EE55
:1019E0000AF09451D9269551DA22DEC473F6DDC48B
:1019F00074F68651735D886F87517459896F84C6F8
:101A000000F685C601F690C602F691C603F692C6A8
:101A100004F693C605F688C606F689C607F620EED4
:101A200001F09451D9269551DA22DF509FECD5F080
:101A30000009D8B41EEF8DF020EF8DF02BEF8DF064
:101A4000060120EE0FF06B51D9266C51DA22010EFF
:101A5000DF6E0BEF8CF006018851736F8951746F44
:101A6000756B766B20EE18F06B51D9266C51DA222B
:101A7000DEC477F6DEC478F6DEC479F6DEC47AF624
:101A80009051775D7B6F915178597C6F9251795964
:101A90007D6F93517A597E6F73517B5D74517C5980
:101AA00075517D5976517E59D8B059EF8DF05BEF65
:101AB0008DF08BEF8DF0220E6B25066E000E6C21E3
:101AC000076E20EE18F06B51D9266C51DA22DEC475
:101AD00073F6DDC474F69051735F9151745B090E17
:101AE000D89073377437E82E70EF8DF073518425DA
:101AF000086E74518521096E020E0B6E000E0A6E7F
:101B00002EECEBF0060120EE0EF06B51D9266C5155
:101B1000DA227F0EDF1688C673F689C674F6090EC0
:101B2000D89073377437E82E90EF8DF073C68EF629
:101B300074C68FF662EF8EF020EE18F06B51D92646
:101B40006C51DA229051DE180FE19151DE180CE150
:101B50009251DE1809E19351DE18D8B4B2EF8DF03E
:101B6000B4EF8DF0FDEF8DF020EE0AF06B51D92629
:101B70006C51DA2210EE10F06B51E1266C51E2222A
:101B8000DE50E65CDE50E658DE50E658DE50E658A1
:101B9000D8B0CDEF8DF0CFEF8DF0FDEF8DF0220EB0
:101BA0006B250F6F000E6C21106F90C611F691C659
:101BB00012F692C613F693C614F6000E166F010EB7
:101BC000156F20EE01F09451D9269551DA22DF509D
:101BD0005BECD3F00009D8B4F0EF8DF0F2EF8DF0AC
:101BE000FDEF8DF0060120EE0FF06B51D9266C5100
:101BF000DA22010EDF6E0BEF8CF0060120EE18F0FA
:101C00006B51D9266C51DA2290C6DEF491C6DEF40F
:101C100092C6DEF493C6DEF420EE10F06B51D926A6
:101C20006C51DA22DEC473F6DDC474F6FF0E731550
:101C3000756F010E7415766F755100088E6F7651B1
:101C4000D8A0E82A02088F6F8E516F5D8F517059AE
:101C5000D8B02DEF8EF02FEF8EF033EF8EF06FC6F1
:101C60008EF670C68FF620EE10F06B51D9266C51AF
:101C7000DA22DEC473F6DDC474F6FF0E7315756FD9
:101C8000010E7415766F75516B25776F76516C2147
:101C9000786F220E7725066E000E7821076E84C6B7
:101CA00008F585C609F58EC60AF58FC60BF52EEC2C
:101CB000EBF0060120EE0EF06B51D9266C51DA22C2
:101CC000000EDB8E8E516F5F8F51705B71C6D9F441
:101CD00072C6DAF48E51DE268F51DD228E518427B2
:101CE0008F51852320EE10F06B51D9266C51DA22EA
:101CF0008E51DE268F51DE22000EDE22DE2220EE05
:101D000010F06B51D9266C51DA2210EE0AF06B51AB
:101D1000E1266C51E222DE50E65CDE50E658DE50F1
:101D2000E658DE50E658D8A098EF8EF09AEF8EF085
:101D3000AAEF8EF020EE0AF06B51D9266C51DA2210
:101D4000DEC47FF6DEC480F6DEC481F6DEC482F631
:101D5000B8EF8EF020EE10F06B51D9266C51DA22DC
:101D6000DEC47FF6DEC480F6DEC481F6DEC482F611
:101D700020EE0AF06B51D9266C51DA227FC6DEF4D0
:101D800080C6DEF481C6DEF482C6DEF413EF8BF08B
:101D900020EE0EF06B51D9266C51DA22000EDB8C4E
:101DA000000E12006BC6C5F56CC6C6F58E0E050199
:101DB000C76F060EC86FBEECDDF00601896F895152
:101DC000D8A4E5EF8EF0E7EF8EF0EFEF8EF020EE87
:101DD0000FF06B51D9266C51DA22DF50896F89518F
:101DE000D8B4F5EF8EF0F7EF8EF0FAEF8EF0895160
:101DF000D2EF92F020EE0AF06B51D9266C51DA2224
:101E00006D51DE5C6E51DE586F51DE587051DE58F8
:101E1000D8B00DEF8FF00FEF8FF02AEF8FF020EE9C
:101E20000EF06B51D9266C51DA22DFB21AEF8FF027
:101E30001CEF8FF02AEF8FF020EE0AF06B51D926BD
:101E40006C51DA22DEC46DF6DEC46EF6DEC46FF6C7
:101E5000DEC470F620EE10F06B51D9266C51DA22F8
:101E6000DEC481F6DEC482F6DEC483F6DEC484F608
:101E7000000E856F000E866F000E876F000E886F54
:101E800020EE10F06B51D9266C51DA2285C6DEF4B3
:101E900086C6DEF487C6DEF488C6DEF46D516E11A8
:101EA0006F117011D8B457EF8FF059EF8FF0DDEF4D
